{
  "_format": "hh3-artifact-1",
  "contractName": "BTCOracle",
  "sourceName": "contracts/BTCOracle.sol",
  "abi": [
    {
      "inputs": [
        {
          "internalType": "address",
          "name": "_btcPriceFeed",
          "type": "address"
        },
        {
          "internalType": "address",
          "name": "_ethPriceFeed",
          "type": "address"
        },
        {
          "internalType": "address",
          "name": "_bnbPriceFeed",
          "type": "address"
        },
        {
          "internalType": "address",
          "name": "_votingContract",
          "type": "address"
        }
      ],
      "stateMutability": "nonpayable",
      "type": "constructor"
    },
    {
      "inputs": [],
      "name": "EnforcedPause",
      "type": "error"
    },
    {
      "inputs": [],
      "name": "ExpectedPause",
      "type": "error"
    },
    {
      "inputs": [
        {
          "internalType": "address",
          "name": "owner",
          "type": "address"
        }
      ],
      "name": "OwnableInvalidOwner",
      "type": "error"
    },
    {
      "inputs": [
        {
          "internalType": "address",
          "name": "account",
          "type": "address"
        }
      ],
      "name": "OwnableUnauthorizedAccount",
      "type": "error"
    },
    {
      "anonymous": false,
      "inputs": [
        {
          "indexed": true,
          "internalType": "uint256",
          "name": "votingPeriodId",
          "type": "uint256"
        },
        {
          "indexed": false,
          "internalType": "uint256",
          "name": "btcCap",
          "type": "uint256"
        },
        {
          "indexed": false,
          "internalType": "uint256",
          "name": "ethCap",
          "type": "uint256"
        },
        {
          "indexed": false,
          "internalType": "uint256",
          "name": "bnbCap",
          "type": "uint256"
        }
      ],
      "name": "MarketSnapshotTaken",
      "type": "event"
    },
    {
      "anonymous": false,
      "inputs": [
        {
          "indexed": true,
          "internalType": "address",
          "name": "previousOwner",
          "type": "address"
        },
        {
          "indexed": true,
          "internalType": "address",
          "name": "newOwner",
          "type": "address"
        }
      ],
      "name": "OwnershipTransferred",
      "type": "event"
    },
    {
      "anonymous": false,
      "inputs": [
        {
          "indexed": false,
          "internalType": "address",
          "name": "account",
          "type": "address"
        }
      ],
      "name": "Paused",
      "type": "event"
    },
    {
      "anonymous": false,
      "inputs": [
        {
          "indexed": true,
          "internalType": "uint256",
          "name": "votingPeriodId",
          "type": "uint256"
        },
        {
          "indexed": false,
          "internalType": "uint256",
          "name": "btcThreshold",
          "type": "uint256"
        },
        {
          "indexed": false,
          "internalType": "uint256",
          "name": "competitorThreshold",
          "type": "uint256"
        }
      ],
      "name": "ThresholdUpdated",
      "type": "event"
    },
    {
      "anonymous": false,
      "inputs": [
        {
          "indexed": false,
          "internalType": "address",
          "name": "account",
          "type": "address"
        }
      ],
      "name": "Unpaused",
      "type": "event"
    },
    {
      "anonymous": false,
      "inputs": [
        {
          "indexed": false,
          "internalType": "address",
          "name": "oldContract",
          "type": "address"
        },
        {
          "indexed": false,
          "internalType": "address",
          "name": "newContract",
          "type": "address"
        }
      ],
      "name": "VotingContractUpdated",
      "type": "event"
    },
    {
      "inputs": [],
      "name": "SNAPSHOT_INTERVAL",
      "outputs": [
        {
          "internalType": "uint256",
          "name": "",
          "type": "uint256"
        }
      ],
      "stateMutability": "view",
      "type": "function"
    },
    {
      "inputs": [],
      "name": "VOTING_DURATION",
      "outputs": [
        {
          "internalType": "uint256",
          "name": "",
          "type": "uint256"
        }
      ],
      "stateMutability": "view",
      "type": "function"
    },
    {
      "inputs": [
        {
          "internalType": "uint256",
          "name": "votingPeriodId",
          "type": "uint256"
        }
      ],
      "name": "canTakeSnapshot",
      "outputs": [
        {
          "internalType": "bool",
          "name": "",
          "type": "bool"
        }
      ],
      "stateMutability": "view",
      "type": "function"
    },
    {
      "inputs": [],
      "name": "currentVotingPeriod",
      "outputs": [
        {
          "internalType": "uint256",
          "name": "",
          "type": "uint256"
        }
      ],
      "stateMutability": "view",
      "type": "function"
    },
    {
      "inputs": [],
      "name": "getBNBPrice",
      "outputs": [
        {
          "internalType": "int256",
          "name": "",
          "type": "int256"
        }
      ],
      "stateMutability": "view",
      "type": "function"
    },
    {
      "inputs": [],
      "name": "getBTCPrice",
      "outputs": [
        {
          "internalType": "int256",
          "name": "",
          "type": "int256"
        }
      ],
      "stateMutability": "view",
      "type": "function"
    },
    {
      "inputs": [],
      "name": "getETHPrice",
      "outputs": [
        {
          "internalType": "int256",
          "name": "",
          "type": "int256"
        }
      ],
      "stateMutability": "view",
      "type": "function"
    },
    {
      "inputs": [
        {
          "internalType": "uint256",
          "name": "votingPeriodId",
          "type": "uint256"
        }
      ],
      "name": "getLatestSnapshot",
      "outputs": [
        {
          "components": [
            {
              "internalType": "uint256",
              "name": "timestamp",
              "type": "uint256"
            },
            {
              "internalType": "uint256",
              "name": "btcMarketCap",
              "type": "uint256"
            },
            {
              "internalType": "uint256",
              "name": "ethMarketCap",
              "type": "uint256"
            },
            {
              "internalType": "uint256",
              "name": "bnbMarketCap",
              "type": "uint256"
            },
            {
              "internalType": "enum BTCOracle.VoteResult",
              "name": "result",
              "type": "uint8"
            }
          ],
          "internalType": "struct BTCOracle.MarketSnapshot",
          "name": "",
          "type": "tuple"
        }
      ],
      "stateMutability": "view",
      "type": "function"
    },
    {
      "inputs": [
        {
          "internalType": "uint256",
          "name": "votingPeriodId",
          "type": "uint256"
        }
      ],
      "name": "getVotingEndTime",
      "outputs": [
        {
          "internalType": "uint256",
          "name": "",
          "type": "uint256"
        }
      ],
      "stateMutability": "view",
      "type": "function"
    },
    {
      "inputs": [
        {
          "internalType": "uint256",
          "name": "votingPeriodId",
          "type": "uint256"
        }
      ],
      "name": "getVotingPeriodSnapshots",
      "outputs": [
        {
          "components": [
            {
              "internalType": "uint256",
              "name": "timestamp",
              "type": "uint256"
            },
            {
              "internalType": "uint256",
              "name": "btcMarketCap",
              "type": "uint256"
            },
            {
              "internalType": "uint256",
              "name": "ethMarketCap",
              "type": "uint256"
            },
            {
              "internalType": "uint256",
              "name": "bnbMarketCap",
              "type": "uint256"
            },
            {
              "internalType": "enum BTCOracle.VoteResult",
              "name": "result",
              "type": "uint8"
            }
          ],
          "internalType": "struct BTCOracle.MarketSnapshot[]",
          "name": "",
          "type": "tuple[]"
        }
      ],
      "stateMutability": "view",
      "type": "function"
    },
    {
      "inputs": [
        {
          "internalType": "uint256",
          "name": "",
          "type": "uint256"
        }
      ],
      "name": "lastSnapshotTime",
      "outputs": [
        {
          "internalType": "uint256",
          "name": "",
          "type": "uint256"
        }
      ],
      "stateMutability": "view",
      "type": "function"
    },
    {
      "inputs": [],
      "name": "owner",
      "outputs": [
        {
          "internalType": "address",
          "name": "",
          "type": "address"
        }
      ],
      "stateMutability": "view",
      "type": "function"
    },
    {
      "inputs": [],
      "name": "pause",
      "outputs": [],
      "stateMutability": "nonpayable",
      "type": "function"
    },
    {
      "inputs": [],
      "name": "paused",
      "outputs": [
        {
          "internalType": "bool",
          "name": "",
          "type": "bool"
        }
      ],
      "stateMutability": "view",
      "type": "function"
    },
    {
      "inputs": [],
      "name": "renounceOwnership",
      "outputs": [],
      "stateMutability": "nonpayable",
      "type": "function"
    },
    {
      "inputs": [
        {
          "internalType": "uint256",
          "name": "votingPeriodId",
          "type": "uint256"
        },
        {
          "internalType": "uint256",
          "name": "btcThreshold",
          "type": "uint256"
        },
        {
          "internalType": "uint256",
          "name": "competitorThreshold",
          "type": "uint256"
        }
      ],
      "name": "setThreshold",
      "outputs": [],
      "stateMutability": "nonpayable",
      "type": "function"
    },
    {
      "inputs": [
        {
          "internalType": "uint256",
          "name": "votingPeriodId",
          "type": "uint256"
        }
      ],
      "name": "takeMarketSnapshot",
      "outputs": [],
      "stateMutability": "nonpayable",
      "type": "function"
    },
    {
      "inputs": [
        {
          "internalType": "uint256",
          "name": "",
          "type": "uint256"
        }
      ],
      "name": "thresholds",
      "outputs": [
        {
          "internalType": "uint256",
          "name": "btcMarketCap",
          "type": "uint256"
        },
        {
          "internalType": "uint256",
          "name": "competitorCap",
          "type": "uint256"
        },
        {
          "internalType": "bool",
          "name": "isActive",
          "type": "bool"
        }
      ],
      "stateMutability": "view",
      "type": "function"
    },
    {
      "inputs": [
        {
          "internalType": "address",
          "name": "newOwner",
          "type": "address"
        }
      ],
      "name": "transferOwnership",
      "outputs": [],
      "stateMutability": "nonpayable",
      "type": "function"
    },
    {
      "inputs": [],
      "name": "unpause",
      "outputs": [],
      "stateMutability": "nonpayable",
      "type": "function"
    },
    {
      "inputs": [
        {
          "internalType": "address",
          "name": "newVotingContract",
          "type": "address"
        }
      ],
      "name": "updateVotingContract",
      "outputs": [],
      "stateMutability": "nonpayable",
      "type": "function"
    },
    {
      "inputs": [],
      "name": "votingContract",
      "outputs": [
        {
          "internalType": "address",
          "name": "",
          "type": "address"
        }
      ],
      "stateMutability": "view",
      "type": "function"
    },
    {
      "inputs": [
        {
          "internalType": "uint256",
          "name": "",
          "type": "uint256"
        },
        {
          "internalType": "uint256",
          "name": "",
          "type": "uint256"
        }
      ],
      "name": "votingPeriodSnapshots",
      "outputs": [
        {
          "internalType": "uint256",
          "name": "timestamp",
          "type": "uint256"
        },
        {
          "internalType": "uint256",
          "name": "btcMarketCap",
          "type": "uint256"
        },
        {
          "internalType": "uint256",
          "name": "ethMarketCap",
          "type": "uint256"
        },
        {
          "internalType": "uint256",
          "name": "bnbMarketCap",
          "type": "uint256"
        },
        {
          "internalType": "enum BTCOracle.VoteResult",
          "name": "result",
          "type": "uint8"
        }
      ],
      "stateMutability": "view",
      "type": "function"
    }
  ],
  "bytecode": "0x608060405234801561000f575f5ffd5b5060405161129c38038061129c83398101604081905261002e916101c5565b338061005357604051631e4fbdf760e01b81525f600482015260240160405180910390fd5b61005c8161015b565b50600180546001600160a01b03199081166001600160a01b03968716178255600280548216958716959095179094556003805485169386169390931790925560078054909316931692909217905560088190556040805160608101825264e8d4a51000815264746a52880060208083019182529282018481525f949094526005909252517f1471eb6eb2c5e789fc3de43f8ce62938c7d1836ec861730447e2ada8fd81017b55517f1471eb6eb2c5e789fc3de43f8ce62938c7d1836ec861730447e2ada8fd81017c55517f1471eb6eb2c5e789fc3de43f8ce62938c7d1836ec861730447e2ada8fd81017d805460ff1916911515919091179055610216565b5f80546001600160a01b038381166001600160a01b0319831681178455604051919092169283917f8be0079c531659141344cd1fd0a4f28419497f9722a3daafe3b4186f6b6457e09190a35050565b80516001600160a01b03811681146101c0575f5ffd5b919050565b5f5f5f5f608085870312156101d8575f5ffd5b6101e1856101aa565b93506101ef602086016101aa565b92506101fd604086016101aa565b915061020b606086016101aa565b905092959194509250565b611079806102235f395ff3fe608060405234801561000f575f5ffd5b5060043610610147575f3560e01c80639bc00f50116100bf578063c4d9a70b11610079578063c4d9a70b146102cf578063da25ca54146102f3578063dd22db8014610313578063df1a86a01461031b578063f2220c9e1461032e578063f2fde38b14610336575f5ffd5b80639bc00f5014610228578063a438d20814610248578063a607a8d914610253578063b21cf99f1461025b578063b6c226111461026e578063c1fc006a146102bc575f5ffd5b80635c975abb116101105780635c975abb146101c657806369ab0005146101d75780636d2beef1146101ea578063715018a6146101f45780638456cb59146101fc5780638da5cb5b14610204575f5ffd5b80622fd8471461014b5780630ea6c0dc1461017d57806315e25ea6146101905780633a049e02146101b35780633f4ba83a146101bc575b5f5ffd5b61016a610159366004610db7565b60066020525f908152604090205481565b6040519081526020015b60405180910390f35b61016a61018b366004610db7565b610349565b6101a361019e366004610db7565b610373565b6040519015158152602001610174565b61016a60085481565b6101c4610398565b005b5f54600160a01b900460ff166101a3565b6101c46101e5366004610dce565b6103aa565b61016a6201518081565b6101c4610437565b6101c4610448565b5f546001600160a01b03165b6040516001600160a01b039091168152602001610174565b61023b610236366004610db7565b610458565b6040516101749190610e64565b61016a6301e1338081565b61016a61059d565b6101c4610269366004610db7565b6105b9565b61029f61027c366004610db7565b60056020525f908152604090208054600182015460029092015490919060ff1683565b604080519384526020840192909252151590820152606001610174565b600754610210906001600160a01b031681565b6102e26102dd366004610e72565b6106ea565b604051610174959493929190610e92565b610306610301366004610db7565b610737565b6040516101749190610ec5565b61016a610803565b6101c4610329366004610f12565b61081a565b61016a6108d9565b6101c4610344366004610f12565b6108f0565b5f6301e133806103598142610f4c565b6103639042610f73565b61036d9190610f86565b92915050565b5f8181526006602052604081205461038f906201518090610f86565b42101592915050565b6103a061092d565b6103a8610959565b565b6103b261092d565b60408051606081018252838152602080820184815260018385018181525f8981526005855286902094518555915190840155516002909201805460ff191692151592909217909155815184815290810183905284917f57776b67dc318e1b02763e26fc5c0f75e1b429afc48e2a3aeec56c8fc87752dd910160405180910390a2505050565b61043f61092d565b6103a85f6109ad565b61045061092d565b6103a86109fc565b610460610d7d565b5f82815260046020908152604080832080548251818502810185019093528083529192909190849084015b8282101561051a578382905f5260205f2090600502016040518060a00160405290815f8201548152602001600182015481526020016002820154815260200160038201548152602001600482015f9054906101000a900460ff1660028111156104f6576104f6610df7565b600281111561050757610507610df7565b815250508152602001906001019061048b565b5050505090505f81511161056e5760405162461bcd60e51b81526020600482015260166024820152754e6f20736e617073686f747320617661696c61626c6560501b60448201526064015b60405180910390fd5b806001825161057d9190610f73565b8151811061058d5761058d610f99565b6020026020010151915050919050565b6002545f906105b4906001600160a01b0316610a3e565b905090565b6105c1610aac565b5f8181526005602052604090206002015460ff1661062d5760405162461bcd60e51b815260206004820152602360248201527f5468726573686f6c64206e6f742073657420666f7220766f74696e67207065726044820152621a5bd960ea1b6064820152608401610565565b5f81815260066020526040902054610649906201518090610f86565b4210156106985760405162461bcd60e51b815260206004820152601d60248201527f536e617073686f7420696e74657276616c206e6f7420726561636865640000006044820152606401610565565b5f5f5f6106a3610ad6565b9250925092505f6106b685858585610b70565b90506106c185610349565b42101580156106e2575060028160028111156106df576106df610df7565b14155b505050505050565b6004602052815f5260405f208181548110610703575f80fd5b5f91825260209091206005909102018054600182015460028301546003840154600490940154929550909350919060ff1685565b606060045f8381526020019081526020015f20805480602002602001604051908101604052809291908181526020015f905b828210156107f8578382905f5260205f2090600502016040518060a00160405290815f8201548152602001600182015481526020016002820154815260200160038201548152602001600482015f9054906101000a900460ff1660028111156107d4576107d4610df7565b60028111156107e5576107e5610df7565b8152505081526020019060010190610769565b505050509050919050565b6001545f906105b4906001600160a01b0316610a3e565b61082261092d565b6001600160a01b0381166108785760405162461bcd60e51b815260206004820152601860248201527f496e76616c696420636f6e7472616374206164647265737300000000000000006044820152606401610565565b600780546001600160a01b038381166001600160a01b031983168117909355604080519190921680825260208201939093527f611f57b6ac3f6c0c57f787b9d2cfd17f1bdd71c6352d80d928fef718f47593d5910160405180910390a15050565b6003545f906105b4906001600160a01b0316610a3e565b6108f861092d565b6001600160a01b03811661092157604051631e4fbdf760e01b81525f6004820152602401610565565b61092a816109ad565b50565b5f546001600160a01b031633146103a85760405163118cdaa760e01b8152336004820152602401610565565b610961610cf4565b5f805460ff60a01b191690557f5db9ee0a495bf2e6ff9c91a7834c1ba4fdd244a5e8aa4e537bd38aeae4b073aa335b6040516001600160a01b03909116815260200160405180910390a1565b5f80546001600160a01b038381166001600160a01b0319831681178455604051919092169283917f8be0079c531659141344cd1fd0a4f28419497f9722a3daafe3b4186f6b6457e09190a35050565b610a04610aac565b5f805460ff60a01b1916600160a01b1790557f62e78cea01bee320cd4e420270b5ea74000d11b0c9f74754ebdbfc544b05a2586109903390565b5f5f826001600160a01b031663feaf968c6040518163ffffffff1660e01b815260040160a060405180830381865afa158015610a7c573d5f5f3e3d5ffd5b505050506040513d601f19601f82011682018060405250810190610aa09190610fcb565b50919695505050505050565b5f54600160a01b900460ff16156103a85760405163d93c066560e01b815260040160405180910390fd5b6001545f90819081908190610af3906001600160a01b0316610a3e565b6002549091505f90610b0d906001600160a01b0316610a3e565b6003549091505f90610b27906001600160a01b0316610a3e565b90506301298be06307270e0063093d1cc05f610b438785610d1d565b90505f610b508785610d1d565b90505f610b5d8785610d1d565b929c919b50919950975050505050505050565b5f5f828411610b7f5782610b81565b835b5f8781526005602090815260408083208151606081018352815480825260018301549482019490945260029091015460ff161515918101919091529293508710610bcc57505f610be3565b81602001518310610bdf57506001610be3565b5060025b5f6040518060a00160405280428152602001898152602001888152602001878152602001836002811115610c1957610c19610df7565b90525f8a8152600460208181526040808420805460018181018355918652948390208651600590960201948555918501518483015584015160028085019190915560608501516003850155608085015192840180549596508695909260ff19909116918490811115610c8d57610c8d610df7565b021790555050505f8981526006602090815260409182902042905581518a815290810189905290810187905289907fe9eb253ccbd5563ee204557d342c26f3d00f63bbfc70834136476a4f6cde21f69060600160405180910390a250979650505050505050565b5f54600160a01b900460ff166103a857604051638dfc202b60e01b815260040160405180910390fd5b5f5f8313610d5d5760405162461bcd60e51b815260206004820152600d60248201526c496e76616c696420707269636560981b6044820152606401610565565b6305f5e100610d6c8385611019565b610d769190611030565b9392505050565b6040518060a001604052805f81526020015f81526020015f81526020015f81526020015f6002811115610db257610db2610df7565b905290565b5f60208284031215610dc7575f5ffd5b5035919050565b5f5f5f60608486031215610de0575f5ffd5b505081359360208301359350604090920135919050565b634e487b7160e01b5f52602160045260245ffd5b60038110610e2757634e487b7160e01b5f52602160045260245ffd5b9052565b805182526020810151602083015260408101516040830152606081015160608301526080810151610e5f6080840182610e0b565b505050565b60a0810161036d8284610e2b565b5f5f60408385031215610e83575f5ffd5b50508035926020909101359150565b5f60a082019050868252856020830152846040830152836060830152610ebb6080830184610e0b565b9695505050505050565b602080825282518282018190525f918401906040840190835b81811015610f0757610ef1838551610e2b565b6020939093019260a09290920191600101610ede565b509095945050505050565b5f60208284031215610f22575f5ffd5b81356001600160a01b0381168114610d76575f5ffd5b634e487b7160e01b5f52601260045260245ffd5b5f82610f5a57610f5a610f38565b500690565b634e487b7160e01b5f52601160045260245ffd5b8181038181111561036d5761036d610f5f565b8082018082111561036d5761036d610f5f565b634e487b7160e01b5f52603260045260245ffd5b805169ffffffffffffffffffff81168114610fc6575f5ffd5b919050565b5f5f5f5f5f60a08688031215610fdf575f5ffd5b610fe886610fad565b6020870151604088015160608901519297509095509350915061100d60808701610fad565b90509295509295909350565b808202811582820484141761036d5761036d610f5f565b5f8261103e5761103e610f38565b50049056fea264697066735822122067e3c0c29329a4b8d5611001c86e5844ccf645e9a4d48198e9364fa6acff0db264736f6c634300081c0033",
  "linkReferences": {},
  "deployedLinkReferences": {},
  "immutableReferences": {},
  "inputSourceName": "project/contracts/BTCOracle.sol",
  "buildInfoId": "solc-0_8_28-f3bf336f8b4f4dd797f3599b7975cb31152accdf"
}