{
  "_format": "hh3-artifact-1",
  "contractName": "StakingContract",
  "sourceName": "contracts/StakingContract.sol",
  "abi": [
    {
      "inputs": [
        {
          "internalType": "address",
          "name": "_vDOTToken",
          "type": "address"
        },
        {
          "internalType": "address",
          "name": "_votingTicketToken",
          "type": "address"
        }
      ],
      "stateMutability": "nonpayable",
      "type": "constructor"
    },
    {
      "inputs": [],
      "name": "EnforcedPause",
      "type": "error"
    },
    {
      "inputs": [],
      "name": "ExpectedPause",
      "type": "error"
    },
    {
      "inputs": [
        {
          "internalType": "address",
          "name": "owner",
          "type": "address"
        }
      ],
      "name": "OwnableInvalidOwner",
      "type": "error"
    },
    {
      "inputs": [
        {
          "internalType": "address",
          "name": "account",
          "type": "address"
        }
      ],
      "name": "OwnableUnauthorizedAccount",
      "type": "error"
    },
    {
      "inputs": [],
      "name": "ReentrancyGuardReentrantCall",
      "type": "error"
    },
    {
      "inputs": [
        {
          "internalType": "address",
          "name": "token",
          "type": "address"
        }
      ],
      "name": "SafeERC20FailedOperation",
      "type": "error"
    },
    {
      "anonymous": false,
      "inputs": [
        {
          "indexed": true,
          "internalType": "address",
          "name": "token",
          "type": "address"
        },
        {
          "indexed": false,
          "internalType": "uint256",
          "name": "amount",
          "type": "uint256"
        }
      ],
      "name": "EmergencyWithdraw",
      "type": "event"
    },
    {
      "anonymous": false,
      "inputs": [
        {
          "indexed": true,
          "internalType": "uint256",
          "name": "optionId",
          "type": "uint256"
        },
        {
          "indexed": false,
          "internalType": "uint256",
          "name": "duration",
          "type": "uint256"
        },
        {
          "indexed": false,
          "internalType": "uint256",
          "name": "multiplier",
          "type": "uint256"
        }
      ],
      "name": "LockOptionAdded",
      "type": "event"
    },
    {
      "anonymous": false,
      "inputs": [
        {
          "indexed": true,
          "internalType": "uint256",
          "name": "optionId",
          "type": "uint256"
        },
        {
          "indexed": false,
          "internalType": "uint256",
          "name": "duration",
          "type": "uint256"
        },
        {
          "indexed": false,
          "internalType": "uint256",
          "name": "multiplier",
          "type": "uint256"
        }
      ],
      "name": "LockOptionUpdated",
      "type": "event"
    },
    {
      "anonymous": false,
      "inputs": [
        {
          "indexed": true,
          "internalType": "address",
          "name": "previousOwner",
          "type": "address"
        },
        {
          "indexed": true,
          "internalType": "address",
          "name": "newOwner",
          "type": "address"
        }
      ],
      "name": "OwnershipTransferred",
      "type": "event"
    },
    {
      "anonymous": false,
      "inputs": [
        {
          "indexed": false,
          "internalType": "address",
          "name": "account",
          "type": "address"
        }
      ],
      "name": "Paused",
      "type": "event"
    },
    {
      "anonymous": false,
      "inputs": [
        {
          "indexed": true,
          "internalType": "address",
          "name": "user",
          "type": "address"
        },
        {
          "indexed": false,
          "internalType": "uint256",
          "name": "amount",
          "type": "uint256"
        },
        {
          "indexed": false,
          "internalType": "uint256",
          "name": "lockDuration",
          "type": "uint256"
        },
        {
          "indexed": false,
          "internalType": "uint256",
          "name": "ticketsMinted",
          "type": "uint256"
        }
      ],
      "name": "Staked",
      "type": "event"
    },
    {
      "anonymous": false,
      "inputs": [
        {
          "indexed": false,
          "internalType": "address",
          "name": "account",
          "type": "address"
        }
      ],
      "name": "Unpaused",
      "type": "event"
    },
    {
      "anonymous": false,
      "inputs": [
        {
          "indexed": true,
          "internalType": "address",
          "name": "user",
          "type": "address"
        },
        {
          "indexed": false,
          "internalType": "uint256",
          "name": "stakeIndex",
          "type": "uint256"
        },
        {
          "indexed": false,
          "internalType": "uint256",
          "name": "amount",
          "type": "uint256"
        }
      ],
      "name": "Unstaked",
      "type": "event"
    },
    {
      "inputs": [
        {
          "internalType": "uint256",
          "name": "amount",
          "type": "uint256"
        },
        {
          "internalType": "uint256",
          "name": "lockDuration",
          "type": "uint256"
        }
      ],
      "name": "calculateTickets",
      "outputs": [
        {
          "internalType": "uint256",
          "name": "",
          "type": "uint256"
        }
      ],
      "stateMutability": "view",
      "type": "function"
    },
    {
      "inputs": [
        {
          "internalType": "address",
          "name": "user",
          "type": "address"
        },
        {
          "internalType": "uint256",
          "name": "stakeIndex",
          "type": "uint256"
        }
      ],
      "name": "canUnstake",
      "outputs": [
        {
          "internalType": "bool",
          "name": "",
          "type": "bool"
        }
      ],
      "stateMutability": "view",
      "type": "function"
    },
    {
      "inputs": [
        {
          "internalType": "address",
          "name": "token",
          "type": "address"
        },
        {
          "internalType": "uint256",
          "name": "amount",
          "type": "uint256"
        }
      ],
      "name": "emergencyWithdraw",
      "outputs": [],
      "stateMutability": "nonpayable",
      "type": "function"
    },
    {
      "inputs": [],
      "name": "getContractTicketBalance",
      "outputs": [
        {
          "internalType": "uint256",
          "name": "",
          "type": "uint256"
        }
      ],
      "stateMutability": "view",
      "type": "function"
    },
    {
      "inputs": [],
      "name": "getContractVDOTBalance",
      "outputs": [
        {
          "internalType": "uint256",
          "name": "",
          "type": "uint256"
        }
      ],
      "stateMutability": "view",
      "type": "function"
    },
    {
      "inputs": [
        {
          "internalType": "address",
          "name": "user",
          "type": "address"
        },
        {
          "internalType": "uint256",
          "name": "index",
          "type": "uint256"
        }
      ],
      "name": "getUserStake",
      "outputs": [
        {
          "components": [
            {
              "internalType": "uint256",
              "name": "amount",
              "type": "uint256"
            },
            {
              "internalType": "uint256",
              "name": "lockDuration",
              "type": "uint256"
            },
            {
              "internalType": "uint256",
              "name": "startTime",
              "type": "uint256"
            },
            {
              "internalType": "uint256",
              "name": "endTime",
              "type": "uint256"
            },
            {
              "internalType": "uint256",
              "name": "ticketsMinted",
              "type": "uint256"
            },
            {
              "internalType": "bool",
              "name": "active",
              "type": "bool"
            }
          ],
          "internalType": "struct StakingContract.StakeInfo",
          "name": "",
          "type": "tuple"
        }
      ],
      "stateMutability": "view",
      "type": "function"
    },
    {
      "inputs": [
        {
          "internalType": "address",
          "name": "user",
          "type": "address"
        }
      ],
      "name": "getUserStakeCount",
      "outputs": [
        {
          "internalType": "uint256",
          "name": "",
          "type": "uint256"
        }
      ],
      "stateMutability": "view",
      "type": "function"
    },
    {
      "inputs": [
        {
          "internalType": "uint256",
          "name": "",
          "type": "uint256"
        }
      ],
      "name": "lockOptions",
      "outputs": [
        {
          "internalType": "uint256",
          "name": "duration",
          "type": "uint256"
        },
        {
          "internalType": "uint256",
          "name": "multiplier",
          "type": "uint256"
        },
        {
          "internalType": "bool",
          "name": "active",
          "type": "bool"
        }
      ],
      "stateMutability": "view",
      "type": "function"
    },
    {
      "inputs": [],
      "name": "owner",
      "outputs": [
        {
          "internalType": "address",
          "name": "",
          "type": "address"
        }
      ],
      "stateMutability": "view",
      "type": "function"
    },
    {
      "inputs": [],
      "name": "pause",
      "outputs": [],
      "stateMutability": "nonpayable",
      "type": "function"
    },
    {
      "inputs": [],
      "name": "paused",
      "outputs": [
        {
          "internalType": "bool",
          "name": "",
          "type": "bool"
        }
      ],
      "stateMutability": "view",
      "type": "function"
    },
    {
      "inputs": [],
      "name": "renounceOwnership",
      "outputs": [],
      "stateMutability": "nonpayable",
      "type": "function"
    },
    {
      "inputs": [
        {
          "internalType": "uint256",
          "name": "amount",
          "type": "uint256"
        },
        {
          "internalType": "uint256",
          "name": "lockDuration",
          "type": "uint256"
        }
      ],
      "name": "stake",
      "outputs": [],
      "stateMutability": "nonpayable",
      "type": "function"
    },
    {
      "inputs": [],
      "name": "totalStaked",
      "outputs": [
        {
          "internalType": "uint256",
          "name": "",
          "type": "uint256"
        }
      ],
      "stateMutability": "view",
      "type": "function"
    },
    {
      "inputs": [
        {
          "internalType": "address",
          "name": "newOwner",
          "type": "address"
        }
      ],
      "name": "transferOwnership",
      "outputs": [],
      "stateMutability": "nonpayable",
      "type": "function"
    },
    {
      "inputs": [],
      "name": "unpause",
      "outputs": [],
      "stateMutability": "nonpayable",
      "type": "function"
    },
    {
      "inputs": [
        {
          "internalType": "uint256",
          "name": "stakeIndex",
          "type": "uint256"
        }
      ],
      "name": "unstake",
      "outputs": [],
      "stateMutability": "nonpayable",
      "type": "function"
    },
    {
      "inputs": [
        {
          "internalType": "uint256",
          "name": "duration",
          "type": "uint256"
        },
        {
          "internalType": "uint256",
          "name": "multiplier",
          "type": "uint256"
        }
      ],
      "name": "updateLockOption",
      "outputs": [],
      "stateMutability": "nonpayable",
      "type": "function"
    },
    {
      "inputs": [
        {
          "internalType": "address",
          "name": "",
          "type": "address"
        },
        {
          "internalType": "uint256",
          "name": "",
          "type": "uint256"
        }
      ],
      "name": "userStakes",
      "outputs": [
        {
          "internalType": "uint256",
          "name": "amount",
          "type": "uint256"
        },
        {
          "internalType": "uint256",
          "name": "lockDuration",
          "type": "uint256"
        },
        {
          "internalType": "uint256",
          "name": "startTime",
          "type": "uint256"
        },
        {
          "internalType": "uint256",
          "name": "endTime",
          "type": "uint256"
        },
        {
          "internalType": "uint256",
          "name": "ticketsMinted",
          "type": "uint256"
        },
        {
          "internalType": "bool",
          "name": "active",
          "type": "bool"
        }
      ],
      "stateMutability": "view",
      "type": "function"
    },
    {
      "inputs": [],
      "name": "vDOTToken",
      "outputs": [
        {
          "internalType": "contract IERC20",
          "name": "",
          "type": "address"
        }
      ],
      "stateMutability": "view",
      "type": "function"
    },
    {
      "inputs": [],
      "name": "votingTicketToken",
      "outputs": [
        {
          "internalType": "contract IERC20",
          "name": "",
          "type": "address"
        }
      ],
      "stateMutability": "view",
      "type": "function"
    }
  ],
  "bytecode": "0x608060405234801561000f575f5ffd5b506040516115f63803806115f683398101604081905261002e916102e6565b338061005357604051631e4fbdf760e01b81525f600482015260240160405180910390fd5b61005c8161027c565b50600180805560028054610100600160a81b0319166101006001600160a01b0395861602179055600380546001600160a01b0319169290931691909117909155604080516060808201835262093a808252612710602080840191825283850186815260075f908152600480845295517fbeb3bad75134cb432e5707980e3245c52c5998a1125ee30f2f0dbf3925b1e5515592517fbeb3bad75134cb432e5707980e3245c52c5998a1125ee30f2f0dbf3925b1e55255517fbeb3bad75134cb432e5707980e3245c52c5998a1125ee30f2f0dbf3925b1e553805460ff199081169215159290921790558551808501875262278d008152612af8818401908152818801898152601e865287855291517f9041ee6632bd2142b9cc58f348e0761559f8d964fe48ac6d87dc2b689213e3bb55517f9041ee6632bd2142b9cc58f348e0761559f8d964fe48ac6d87dc2b689213e3bc55517f9041ee6632bd2142b9cc58f348e0761559f8d964fe48ac6d87dc2b689213e3bd80548316911515919091179055855193840186526276a70084526132c8848301908152958401968752605a90925292909252517fdf768ab10bd9bf6991efbce6ca12a3eab909711d259e530cf7c7661f662cdb235590517fdf768ab10bd9bf6991efbce6ca12a3eab909711d259e530cf7c7661f662cdb245590517fdf768ab10bd9bf6991efbce6ca12a3eab909711d259e530cf7c7661f662cdb258054909216901515179055610317565b5f80546001600160a01b038381166001600160a01b0319831681178455604051919092169283917f8be0079c531659141344cd1fd0a4f28419497f9722a3daafe3b4186f6b6457e09190a35050565b80516001600160a01b03811681146102e1575f5ffd5b919050565b5f5f604083850312156102f7575f5ffd5b610300836102cb565b915061030e602084016102cb565b90509250929050565b6112d2806103245f395ff3fe608060405234801561000f575f5ffd5b5060043610610132575f3560e01c8063817b1cd2116100b4578063b5d5b5fa11610079578063b5d5b5fa1461029b578063bde12c9c146102dd578063cec695fa146102f0578063d0743d4314610350578063f2fde38b14610368578063f980c92b1461037b575f5ffd5b8063817b1cd2146102195780638456cb59146102225780638da5cb5b1461022a57806395ccea671461023a578063a7d9131f1461024d575f5ffd5b80635e598d12116100fa5780635e598d12146101b85780636f3e9ff7146101cb578063715018a6146101f65780637b0472f0146101fe5780637c860a5f14610211575f5ffd5b80630fe6b711146101365780631b545a171461015c5780632e17de78146101845780633f4ba83a146101995780635c975abb146101a1575b5f5ffd5b610149610144366004611167565b610383565b6040519081526020015b60405180910390f35b61014961016a3660046111a2565b6001600160a01b03165f9081526005602052604090205490565b6101976101923660046111c2565b61044b565b005b6101976105f4565b60025460ff165b6040519015158152602001610153565b6101a86101c63660046111d9565b610606565b6003546101de906001600160a01b031681565b6040516001600160a01b039091168152602001610153565b6101976106c9565b61019761020c366004611167565b6106da565b610149610a8e565b61014960065481565b610197610b03565b5f546001600160a01b03166101de565b6101976102483660046111d9565b610b13565b61027e61025b3660046111c2565b60046020525f908152604090208054600182015460029092015490919060ff1683565b604080519384526020840192909252151590820152606001610153565b6102ae6102a93660046111d9565b610b87565b6040805196875260208701959095529385019290925260608401526080830152151560a082015260c001610153565b6101976102eb366004611167565b610bda565b6103036102fe3660046111d9565b610d5e565b60405161015391905f60c082019050825182526020830151602083015260408301516040830152606083015160608301526080830151608083015260a0830151151560a083015292915050565b6002546101de9061010090046001600160a01b031681565b6101976103763660046111a2565b610e73565b610149610ead565b5f8181526004602090815260408083208151606081018352815481526001820154938101939093526002015460ff1615159082018190526104075760405162461bcd60e51b81526020600482015260196024820152784c6f636b206f7074696f6e206e6f7420617661696c61626c6560381b60448201526064015b60405180910390fd5b5f8490505f61271080846020015161041f9190611215565b6104299084611228565b610433919061123f565b905061043f818361125e565b93505050505b92915050565b610453610edd565b335f9081526005602052604090205481106104a65760405162461bcd60e51b8152602060048201526013602482015272092dcecc2d8d2c840e6e8c2d6ca40d2dcc8caf606b1b60448201526064016103fe565b335f9081526005602052604081208054839081106104c6576104c6611271565b5f9182526020909120600690910201600581015490915060ff1661051f5760405162461bcd60e51b815260206004820152601060248201526f5374616b65206e6f742061637469766560801b60448201526064016103fe565b80600301544210156105685760405162461bcd60e51b815260206004820152601260248201527114dd185ad9481cdd1a5b1b081b1bd8dad95960721b60448201526064016103fe565b80546002546105869061010090046001600160a01b03163383610f07565b60058201805460ff19169055600680548291905f906105a6908490611215565b9091555050604080518481526020810183905233917f7fc4727e062e336010f2c282598ef5f14facb3de68cf8195c2f23e1454b2b74e910160405180910390a250506105f160018055565b50565b6105fc610f6b565b610604610f97565b565b6001600160a01b0382165f90815260056020526040812054821061062b57505f610445565b6001600160a01b0383165f90815260056020526040812080548490811061065457610654611271565b5f9182526020918290206040805160c081018252600690930290910180548352600181015493830193909352600283015490820152600382015460608201526004820154608082015260059091015460ff1615801560a083018190529192506106c1575080606001514210155b949350505050565b6106d1610f6b565b6106045f610fe9565b6106e2610edd565b6106ea611038565b5f82116107395760405162461bcd60e51b815260206004820152601d60248201527f416d6f756e74206d7573742062652067726561746572207468616e203000000060448201526064016103fe565b5f8181526004602052604090206002015460ff166107955760405162461bcd60e51b81526020600482015260196024820152784c6f636b206f7074696f6e206e6f7420617661696c61626c6560381b60448201526064016103fe565b6002546040516370a0823160e01b8152336004820152839161010090046001600160a01b0316906370a0823190602401602060405180830381865afa1580156107e0573d5f5f3e3d5ffd5b505050506040513d601f19601f820116820180604052508101906108049190611285565b10156108525760405162461bcd60e51b815260206004820152601960248201527f496e73756666696369656e742076444f542062616c616e63650000000000000060448201526064016103fe565b600254604051636eb1769f60e11b8152336004820152306024820152839161010090046001600160a01b03169063dd62ed3e90604401602060405180830381865afa1580156108a3573d5f5f3e3d5ffd5b505050506040513d601f19601f820116820180604052508101906108c79190611285565b101561090e5760405162461bcd60e51b8152602060048201526016602482015275496e73756666696369656e7420616c6c6f77616e636560501b60448201526064016103fe565b5f8181526004602090815260408083208151606081018352815481526001820154938101939093526002015460ff161515908201529061094e8484610383565b60025490915061096e9061010090046001600160a01b031633308761105c565b5f6040518060c00160405280868152602001858152602001428152602001856201518061099b9190611228565b6109a5904261125e565b8152602080820185905260016040928301819052335f908152600580845284822080548085018255908352848320875160069283029091019081559487015193850193909355938501516002840155606085015160038401556080850151600484015560a085015192909301805460ff19169215159290921790915580549293508792909190610a3690849061125e565b9091555050604080518681526020810186905290810183905233907fb4caaf29adda3eefee3ad552a8e85058589bf834c7466cae4ee58787f70589ed9060600160405180910390a2505050610a8a60018055565b5050565b6002546040516370a0823160e01b81523060048201525f9161010090046001600160a01b0316906370a08231906024015b602060405180830381865afa158015610ada573d5f5f3e3d5ffd5b505050506040513d601f19601f82011682018060405250810190610afe9190611285565b905090565b610b0b610f6b565b61060461109b565b610b1b610f6b565b610b40610b2f5f546001600160a01b031690565b6001600160a01b0384169083610f07565b816001600160a01b03167f5fafa99d0643513820be26656b45130b01e1c03062e1266bf36f88cbd3bd969582604051610b7b91815260200190565b60405180910390a25050565b6005602052815f5260405f208181548110610ba0575f80fd5b5f91825260209091206006909102018054600182015460028301546003840154600485015460059095015493965091945092909160ff1686565b610be2610f6b565b612710811015610c345760405162461bcd60e51b815260206004820152601960248201527f4d756c7469706c696572206d757374206265203e3d20312e300000000000000060448201526064016103fe565b5f8211610c835760405162461bcd60e51b815260206004820152601f60248201527f4475726174696f6e206d7573742062652067726561746572207468616e20300060448201526064016103fe565b60405180606001604052808362015180610c9d9190611228565b81526020808201849052600160409283018190525f868152600483528381208551808255938601519281019290925593909201516002909201805460ff1916921515929092179091559003610d2f57817f2a7d636d9d2351ed68dd8c5eccf08e842b6f81cc70ba2c5d65ec4b6ab47ff77f610d1b8262015180611228565b604080519182526020820185905201610b7b565b817f697c1a26bd5646cbc6057b8711940fd6973efc6ecb74110c64b400a8b3c385bb610d1b8262015180611228565b610d936040518060c001604052805f81526020015f81526020015f81526020015f81526020015f81526020015f151581525090565b6001600160a01b0383165f908152600560205260409020548210610de95760405162461bcd60e51b815260206004820152600d60248201526c092dcecc2d8d2c840d2dcc8caf609b1b60448201526064016103fe565b6001600160a01b0383165f908152600560205260409020805483908110610e1257610e12611271565b5f9182526020918290206040805160c081018252600690930290910180548352600181015493830193909352600283015490820152600382015460608201526004820154608082015260059091015460ff16151560a0820152905092915050565b610e7b610f6b565b6001600160a01b038116610ea457604051631e4fbdf760e01b81525f60048201526024016103fe565b6105f181610fe9565b6003546040516370a0823160e01b81523060048201525f916001600160a01b0316906370a0823190602401610abf565b600260015403610f0057604051633ee5aeb560e01b815260040160405180910390fd5b6002600155565b6040516001600160a01b03838116602483015260448201839052610f6691859182169063a9059cbb906064015b604051602081830303815290604052915060e01b6020820180516001600160e01b0383818316178352505050506110d8565b505050565b5f546001600160a01b031633146106045760405163118cdaa760e01b81523360048201526024016103fe565b610f9f611144565b6002805460ff191690557f5db9ee0a495bf2e6ff9c91a7834c1ba4fdd244a5e8aa4e537bd38aeae4b073aa335b6040516001600160a01b03909116815260200160405180910390a1565b5f80546001600160a01b038381166001600160a01b0319831681178455604051919092169283917f8be0079c531659141344cd1fd0a4f28419497f9722a3daafe3b4186f6b6457e09190a35050565b60025460ff16156106045760405163d93c066560e01b815260040160405180910390fd5b6040516001600160a01b0384811660248301528381166044830152606482018390526110959186918216906323b872dd90608401610f34565b50505050565b6110a3611038565b6002805460ff191660011790557f62e78cea01bee320cd4e420270b5ea74000d11b0c9f74754ebdbfc544b05a258610fcc3390565b5f5f60205f8451602086015f885af1806110f7576040513d5f823e3d81fd5b50505f513d9150811561110e57806001141561111b565b6001600160a01b0384163b155b1561109557604051635274afe760e01b81526001600160a01b03851660048201526024016103fe565b60025460ff1661060457604051638dfc202b60e01b815260040160405180910390fd5b5f5f60408385031215611178575f5ffd5b50508035926020909101359150565b80356001600160a01b038116811461119d575f5ffd5b919050565b5f602082840312156111b2575f5ffd5b6111bb82611187565b9392505050565b5f602082840312156111d2575f5ffd5b5035919050565b5f5f604083850312156111ea575f5ffd5b6111f383611187565b946020939093013593505050565b634e487b7160e01b5f52601160045260245ffd5b8181038181111561044557610445611201565b808202811582820484141761044557610445611201565b5f8261125957634e487b7160e01b5f52601260045260245ffd5b500490565b8082018082111561044557610445611201565b634e487b7160e01b5f52603260045260245ffd5b5f60208284031215611295575f5ffd5b505191905056fea2646970667358221220c456d278ffef7931f076c09f04b210522c3d42ab709d617f65e1fd0692145f2864736f6c634300081c0033",
  "linkReferences": {},
  "deployedLinkReferences": {},
  "immutableReferences": {},
  "inputSourceName": "project/contracts/StakingContract.sol",
  "buildInfoId": "solc-0_8_28-94f7298a25f8b1f70d79badd93742d9359b87e89"
}