{
  "_format": "hh3-artifact-1",
  "contractName": "VotingContract",
  "sourceName": "contracts/VotingContract.sol",
  "abi": [
    {
      "inputs": [
        {
          "internalType": "address",
          "name": "_votingTicketToken",
          "type": "address"
        },
        {
          "internalType": "address",
          "name": "_oracleContract",
          "type": "address"
        }
      ],
      "stateMutability": "nonpayable",
      "type": "constructor"
    },
    {
      "inputs": [],
      "name": "EnforcedPause",
      "type": "error"
    },
    {
      "inputs": [],
      "name": "ExpectedPause",
      "type": "error"
    },
    {
      "inputs": [
        {
          "internalType": "address",
          "name": "owner",
          "type": "address"
        }
      ],
      "name": "OwnableInvalidOwner",
      "type": "error"
    },
    {
      "inputs": [
        {
          "internalType": "address",
          "name": "account",
          "type": "address"
        }
      ],
      "name": "OwnableUnauthorizedAccount",
      "type": "error"
    },
    {
      "inputs": [],
      "name": "ReentrancyGuardReentrantCall",
      "type": "error"
    },
    {
      "inputs": [
        {
          "internalType": "address",
          "name": "token",
          "type": "address"
        }
      ],
      "name": "SafeERC20FailedOperation",
      "type": "error"
    },
    {
      "anonymous": false,
      "inputs": [
        {
          "indexed": false,
          "internalType": "address",
          "name": "oldOracle",
          "type": "address"
        },
        {
          "indexed": false,
          "internalType": "address",
          "name": "newOracle",
          "type": "address"
        }
      ],
      "name": "OracleContractUpdated",
      "type": "event"
    },
    {
      "anonymous": false,
      "inputs": [
        {
          "indexed": true,
          "internalType": "address",
          "name": "previousOwner",
          "type": "address"
        },
        {
          "indexed": true,
          "internalType": "address",
          "name": "newOwner",
          "type": "address"
        }
      ],
      "name": "OwnershipTransferred",
      "type": "event"
    },
    {
      "anonymous": false,
      "inputs": [
        {
          "indexed": false,
          "internalType": "address",
          "name": "account",
          "type": "address"
        }
      ],
      "name": "Paused",
      "type": "event"
    },
    {
      "anonymous": false,
      "inputs": [
        {
          "indexed": true,
          "internalType": "address",
          "name": "user",
          "type": "address"
        },
        {
          "indexed": false,
          "internalType": "uint256",
          "name": "voteIndex",
          "type": "uint256"
        },
        {
          "indexed": false,
          "internalType": "uint256",
          "name": "rewardAmount",
          "type": "uint256"
        }
      ],
      "name": "RewardClaimed",
      "type": "event"
    },
    {
      "anonymous": false,
      "inputs": [
        {
          "indexed": false,
          "internalType": "address",
          "name": "account",
          "type": "address"
        }
      ],
      "name": "Unpaused",
      "type": "event"
    },
    {
      "anonymous": false,
      "inputs": [
        {
          "indexed": true,
          "internalType": "address",
          "name": "user",
          "type": "address"
        },
        {
          "indexed": false,
          "internalType": "uint256",
          "name": "votingPeriodId",
          "type": "uint256"
        },
        {
          "indexed": false,
          "internalType": "enum VotingContract.VoteOption",
          "name": "option",
          "type": "uint8"
        },
        {
          "indexed": false,
          "internalType": "uint256",
          "name": "ticketsUsed",
          "type": "uint256"
        }
      ],
      "name": "VoteCast",
      "type": "event"
    },
    {
      "anonymous": false,
      "inputs": [
        {
          "indexed": true,
          "internalType": "uint256",
          "name": "votingPeriodId",
          "type": "uint256"
        },
        {
          "indexed": false,
          "internalType": "enum VotingContract.VoteOption",
          "name": "correctAnswer",
          "type": "uint8"
        }
      ],
      "name": "VotingPeriodResolved",
      "type": "event"
    },
    {
      "inputs": [
        {
          "internalType": "address",
          "name": "user",
          "type": "address"
        },
        {
          "internalType": "uint256",
          "name": "voteIndex",
          "type": "uint256"
        }
      ],
      "name": "canClaimReward",
      "outputs": [
        {
          "internalType": "bool",
          "name": "",
          "type": "bool"
        }
      ],
      "stateMutability": "view",
      "type": "function"
    },
    {
      "inputs": [
        {
          "internalType": "uint256",
          "name": "voteIndex",
          "type": "uint256"
        }
      ],
      "name": "claimReward",
      "outputs": [],
      "stateMutability": "nonpayable",
      "type": "function"
    },
    {
      "inputs": [
        {
          "internalType": "uint256",
          "name": "duration",
          "type": "uint256"
        }
      ],
      "name": "createVotingPeriod",
      "outputs": [],
      "stateMutability": "nonpayable",
      "type": "function"
    },
    {
      "inputs": [],
      "name": "currentVotingPeriodId",
      "outputs": [
        {
          "internalType": "uint256",
          "name": "",
          "type": "uint256"
        }
      ],
      "stateMutability": "view",
      "type": "function"
    },
    {
      "inputs": [],
      "name": "getContractTicketBalance",
      "outputs": [
        {
          "internalType": "uint256",
          "name": "",
          "type": "uint256"
        }
      ],
      "stateMutability": "view",
      "type": "function"
    },
    {
      "inputs": [],
      "name": "getCurrentVotingPeriod",
      "outputs": [
        {
          "components": [
            {
              "internalType": "uint256",
              "name": "startTime",
              "type": "uint256"
            },
            {
              "internalType": "uint256",
              "name": "endTime",
              "type": "uint256"
            },
            {
              "internalType": "bool",
              "name": "active",
              "type": "bool"
            },
            {
              "internalType": "bool",
              "name": "resolved",
              "type": "bool"
            },
            {
              "internalType": "enum VotingContract.VoteOption",
              "name": "correctAnswer",
              "type": "uint8"
            }
          ],
          "internalType": "struct VotingContract.VotingPeriod",
          "name": "",
          "type": "tuple"
        }
      ],
      "stateMutability": "view",
      "type": "function"
    },
    {
      "inputs": [
        {
          "internalType": "address",
          "name": "user",
          "type": "address"
        },
        {
          "internalType": "uint256",
          "name": "index",
          "type": "uint256"
        }
      ],
      "name": "getUserVote",
      "outputs": [
        {
          "components": [
            {
              "internalType": "enum VotingContract.VoteOption",
              "name": "option",
              "type": "uint8"
            },
            {
              "internalType": "uint256",
              "name": "ticketsUsed",
              "type": "uint256"
            },
            {
              "internalType": "uint256",
              "name": "votingPeriodId",
              "type": "uint256"
            },
            {
              "internalType": "uint256",
              "name": "timestamp",
              "type": "uint256"
            },
            {
              "internalType": "bool",
              "name": "claimed",
              "type": "bool"
            }
          ],
          "internalType": "struct VotingContract.UserVote",
          "name": "",
          "type": "tuple"
        }
      ],
      "stateMutability": "view",
      "type": "function"
    },
    {
      "inputs": [
        {
          "internalType": "address",
          "name": "user",
          "type": "address"
        }
      ],
      "name": "getUserVoteCount",
      "outputs": [
        {
          "internalType": "uint256",
          "name": "",
          "type": "uint256"
        }
      ],
      "stateMutability": "view",
      "type": "function"
    },
    {
      "inputs": [
        {
          "internalType": "uint256",
          "name": "votingPeriodId",
          "type": "uint256"
        },
        {
          "internalType": "enum VotingContract.VoteOption",
          "name": "option",
          "type": "uint8"
        }
      ],
      "name": "getVoteStats",
      "outputs": [
        {
          "internalType": "uint256",
          "name": "",
          "type": "uint256"
        }
      ],
      "stateMutability": "view",
      "type": "function"
    },
    {
      "inputs": [],
      "name": "oracleContract",
      "outputs": [
        {
          "internalType": "address",
          "name": "",
          "type": "address"
        }
      ],
      "stateMutability": "view",
      "type": "function"
    },
    {
      "inputs": [],
      "name": "owner",
      "outputs": [
        {
          "internalType": "address",
          "name": "",
          "type": "address"
        }
      ],
      "stateMutability": "view",
      "type": "function"
    },
    {
      "inputs": [],
      "name": "pause",
      "outputs": [],
      "stateMutability": "nonpayable",
      "type": "function"
    },
    {
      "inputs": [],
      "name": "paused",
      "outputs": [
        {
          "internalType": "bool",
          "name": "",
          "type": "bool"
        }
      ],
      "stateMutability": "view",
      "type": "function"
    },
    {
      "inputs": [],
      "name": "renounceOwnership",
      "outputs": [],
      "stateMutability": "nonpayable",
      "type": "function"
    },
    {
      "inputs": [
        {
          "internalType": "uint256",
          "name": "votingPeriodId",
          "type": "uint256"
        },
        {
          "internalType": "enum VotingContract.VoteOption",
          "name": "correctOption",
          "type": "uint8"
        }
      ],
      "name": "resolveVotingPeriod",
      "outputs": [],
      "stateMutability": "nonpayable",
      "type": "function"
    },
    {
      "inputs": [
        {
          "internalType": "address",
          "name": "newOwner",
          "type": "address"
        }
      ],
      "name": "transferOwnership",
      "outputs": [],
      "stateMutability": "nonpayable",
      "type": "function"
    },
    {
      "inputs": [],
      "name": "unpause",
      "outputs": [],
      "stateMutability": "nonpayable",
      "type": "function"
    },
    {
      "inputs": [
        {
          "internalType": "address",
          "name": "newOracle",
          "type": "address"
        }
      ],
      "name": "updateOracleContract",
      "outputs": [],
      "stateMutability": "nonpayable",
      "type": "function"
    },
    {
      "inputs": [
        {
          "internalType": "address",
          "name": "",
          "type": "address"
        },
        {
          "internalType": "uint256",
          "name": "",
          "type": "uint256"
        }
      ],
      "name": "userVotes",
      "outputs": [
        {
          "internalType": "enum VotingContract.VoteOption",
          "name": "option",
          "type": "uint8"
        },
        {
          "internalType": "uint256",
          "name": "ticketsUsed",
          "type": "uint256"
        },
        {
          "internalType": "uint256",
          "name": "votingPeriodId",
          "type": "uint256"
        },
        {
          "internalType": "uint256",
          "name": "timestamp",
          "type": "uint256"
        },
        {
          "internalType": "bool",
          "name": "claimed",
          "type": "bool"
        }
      ],
      "stateMutability": "view",
      "type": "function"
    },
    {
      "inputs": [
        {
          "internalType": "enum VotingContract.VoteOption",
          "name": "option",
          "type": "uint8"
        },
        {
          "internalType": "uint256",
          "name": "ticketsToUse",
          "type": "uint256"
        }
      ],
      "name": "vote",
      "outputs": [],
      "stateMutability": "nonpayable",
      "type": "function"
    },
    {
      "inputs": [
        {
          "internalType": "uint256",
          "name": "",
          "type": "uint256"
        }
      ],
      "name": "votingPeriods",
      "outputs": [
        {
          "internalType": "uint256",
          "name": "startTime",
          "type": "uint256"
        },
        {
          "internalType": "uint256",
          "name": "endTime",
          "type": "uint256"
        },
        {
          "internalType": "bool",
          "name": "active",
          "type": "bool"
        },
        {
          "internalType": "bool",
          "name": "resolved",
          "type": "bool"
        },
        {
          "internalType": "enum VotingContract.VoteOption",
          "name": "correctAnswer",
          "type": "uint8"
        }
      ],
      "stateMutability": "view",
      "type": "function"
    },
    {
      "inputs": [],
      "name": "votingTicketToken",
      "outputs": [
        {
          "internalType": "contract IERC20",
          "name": "",
          "type": "address"
        }
      ],
      "stateMutability": "view",
      "type": "function"
    }
  ],
  "bytecode": "0x608060405234801561000f575f5ffd5b50604051611c05380380611c0583398101604081905261002e9161021c565b338061005357604051631e4fbdf760e01b81525f600482015260240160405180910390fd5b61005c816101b2565b50600180805560028054610100600160a81b0319166101006001600160a01b038681169190910291909117909155600780546001600160a01b0319169184169190911790556003556040805160a081019091524280825260208201906100c6906301e1338061024d565b8152600160208201525f60408201526060016005905260015f526004602090815281517fabd6e7cb50984ff9c2f3e18a2660c3353dadf4e3291deeb275dae2cd1e44fe05908155908201517fabd6e7cb50984ff9c2f3e18a2660c3353dadf4e3291deeb275dae2cd1e44fe065560408201517fabd6e7cb50984ff9c2f3e18a2660c3353dadf4e3291deeb275dae2cd1e44fe078054606085015115156101000261ff00199315159390931661ffff1990911617919091178082556080840151919062ff00001916620100008360058111156101a3576101a3610272565b02179055509050505050610286565b5f80546001600160a01b038381166001600160a01b0319831681178455604051919092169283917f8be0079c531659141344cd1fd0a4f28419497f9722a3daafe3b4186f6b6457e09190a35050565b80516001600160a01b0381168114610217575f5ffd5b919050565b5f5f6040838503121561022d575f5ffd5b61023683610201565b915061024460208401610201565b90509250929050565b8082018082111561026c57634e487b7160e01b5f52601160045260245ffd5b92915050565b634e487b7160e01b5f52602160045260245ffd5b611972806102935f395ff3fe608060405234801561000f575f5ffd5b506004361061013d575f3560e01c8063a01bc01f116100b4578063c273c53e11610079578063c273c53e146102f4578063c304975614610307578063d3bab58f1461031a578063d3f29ace1461032d578063f2fde38b14610340578063f980c92b14610353575f5ffd5b8063a01bc01f14610286578063adc44a26146102a6578063ae169a50146102b9578063ae40bc79146102cc578063bece7532146102e1575f5ffd5b8063669ea37a11610105578063669ea37a146101ea5780636f3e9ff714610212578063715018a6146102425780638456cb591461024a5780638b3511f7146102525780638da5cb5b14610276575f5ffd5b806323ad2d4e146101415780632fb0fc92146101565780633f4ba83a146101b457806358200e7a146101bc5780635c975abb146101d3575b5f5ffd5b61015461014f3660046116af565b61035b565b005b61019a6101643660046116d9565b60046020525f908152604090208054600182015460029092015490919060ff808216916101008104821691620100009091041685565b6040516101ab959493929190611724565b60405180910390f35b610154610546565b6101c560035481565b6040519081526020016101ab565b60025460ff165b60405190151581526020016101ab565b6101c56101f836600461176f565b6001600160a01b03165f9081526005602052604090205490565b60025461022a9061010090046001600160a01b031681565b6040516001600160a01b0390911681526020016101ab565b610154610558565b610154610569565b61026561026036600461178f565b610579565b6040516101ab9594939291906117b7565b5f546001600160a01b031661022a565b61029961029436600461178f565b6105c8565b6040516101ab91906117e9565b6101c56102b43660046116af565b6106fb565b6101546102c73660046116d9565b610745565b6102d46109f4565b6040516101ab919061182b565b60075461022a906001600160a01b031681565b6101da61030236600461178f565b610aaa565b6101546103153660046116d9565b610c54565b61015461032836600461176f565b610d6f565b61015461033b366004611871565b610e27565b61015461034e36600461176f565b611364565b6101c561139e565b6007546001600160a01b031633146103ba5760405162461bcd60e51b815260206004820152601760248201527f4f6e6c79206f7261636c652063616e207265736f6c766500000000000000000060448201526064015b60405180910390fd5b60058160058111156103ce576103ce6116f0565b111561040d5760405162461bcd60e51b815260206004820152600e60248201526d24b73b30b634b21037b83a34b7b760911b60448201526064016103b1565b5f8281526004602052604090206002015460ff1661046d5760405162461bcd60e51b815260206004820152601860248201527f566f74696e6720706572696f64206e6f7420616374697665000000000000000060448201526064016103b1565b5f82815260046020526040902060020154610100900460ff16156104c65760405162461bcd60e51b815260206004820152601060248201526f105b1c9958591e481c995cdbdb1d995960821b60448201526064016103b1565b5f828152600460205260409020600201805461010061ff001982168117835583929162ffff0019161762010000836005811115610505576105056116f0565b0217905550817fbfec868042623fde4bc84bd791ebc3333dff231ed8a5795311e60c89a6d29bc08260405161053a919061188b565b60405180910390a25050565b61054e611412565b61055661143e565b565b610560611412565b6105565f611490565b610571611412565b6105566114df565b6005602052815f5260405f208181548110610592575f80fd5b5f9182526020909120600590910201805460018201546002830154600384015460049094015460ff938416965091945092911685565b6105f86040805160a08101909152805f81526020015f81526020015f81526020015f81526020015f151581525090565b6001600160a01b0383165f90815260056020526040902054821061064e5760405162461bcd60e51b815260206004820152600d60248201526c092dcecc2d8d2c840d2dcc8caf609b1b60448201526064016103b1565b6001600160a01b0383165f90815260056020526040902080548390811061067757610677611899565b905f5260205f2090600502016040518060a00160405290815f82015f9054906101000a900460ff1660058111156106b0576106b06116f0565b60058111156106c1576106c16116f0565b815260018201546020820152600282015460408201526003820154606082015260049091015460ff16151560809091015290505b92915050565b5f8281526006602052604081206001018183600581111561071e5761071e6116f0565b600581111561072f5761072f6116f0565b81526020019081526020015f2054905092915050565b61074d61151c565b335f90815260056020526040902054811061079f5760405162461bcd60e51b8152602060048201526012602482015271092dcecc2d8d2c840ecdee8ca40d2dcc8caf60731b60448201526064016103b1565b335f9081526005602052604081208054839081106107bf576107bf611899565b5f9182526020909120600590910201600481015490915060ff161561081f5760405162461bcd60e51b815260206004820152601660248201527514995dd85c9908185b1c9958591e4818db185a5b595960521b60448201526064016103b1565b6002808201545f908152600460209081526040808320815160a081018352815481526001820154938101939093529384015460ff80821615159284019290925261010081048216151560608401529293919260808401916201000090910416600581111561088f5761088f6116f0565b60058111156108a0576108a06116f0565b81525050905080606001516108f75760405162461bcd60e51b815260206004820152601a60248201527f566f74696e6720706572696f64206e6f74207265736f6c76656400000000000060448201526064016103b1565b815460ff16600581111561090d5761090d6116f0565b81608001516005811115610923576109236116f0565b146109655760405162461bcd60e51b8152602060048201526012602482015271159bdd19481dd85cc81a5b98dbdc9c9958dd60721b60448201526064016103b1565b60018201546002905f9061097a9083906118c1565b60048501805460ff191660011790556002549091506109a9906001600160a01b03610100909104163383611546565b604080518681526020810183905233917ff01da32686223933d8a18a391060918c7f11a3648639edd87ae013e2e2731743910160405180910390a2505050506109f160018055565b50565b610a226040805160a0810182525f808252602082018190529181018290526060810182905290608082015290565b6003545f90815260046020908152604091829020825160a08101845281548152600182015492810192909252600281015460ff808216151594840194909452610100810484161515606084015291929091608084019162010000909104166005811115610a9157610a916116f0565b6005811115610aa257610aa26116f0565b905250919050565b6001600160a01b0382165f908152600560205260408120548210610acf57505f6106f5565b6001600160a01b0383165f908152600560205260408120805484908110610af857610af8611899565b905f5260205f2090600502016040518060a00160405290815f82015f9054906101000a900460ff166005811115610b3157610b316116f0565b6005811115610b4257610b426116f0565b815260018201546020820152600282015460408201526003820154606082015260049091015460ff16151560809182015281015190915015610b87575f9150506106f5565b6040808201515f90815260046020908152828220835160a08101855281548152600182015492810192909252600281015460ff80821615159584019590955261010081048516151560608401529293919290916080840191620100009004166005811115610bf757610bf76116f0565b6005811115610c0857610c086116f0565b8152505090508060600151610c21575f925050506106f5565b81516005811115610c3457610c346116f0565b81608001516005811115610c4a57610c4a6116f0565b1495945050505050565b610c5c611412565b5f8111610cab5760405162461bcd60e51b815260206004820152601f60248201527f4475726174696f6e206d7573742062652067726561746572207468616e20300060448201526064016103b1565b60038054905f610cba836118d8565b91905055506040518060a001604052804281526020018242610cdc91906118f0565b8152600160208201525f6040820152606001600590526003545f908152600460209081526040918290208351815590830151600182015590820151600282018054606085015115156101000261ff00199315159390931661ffff1990911617919091178082556080840151919062ff0000191662010000836005811115610d6557610d656116f0565b0217905550505050565b610d77611412565b6001600160a01b038116610dc65760405162461bcd60e51b8152602060048201526016602482015275496e76616c6964206f7261636c65206164647265737360501b60448201526064016103b1565b600780546001600160a01b038381166001600160a01b031983168117909355604080519190921680825260208201939093527fbf7ec739eb17989ec37b8022950e7d1780f24bd2f029fe363f8320b6b6042f7c910160405180910390a15050565b610e2f61151c565b610e376115aa565b5f8111610e865760405162461bcd60e51b815260206004820152601a60248201527f4d75737420757365206174206c656173742031207469636b657400000000000060448201526064016103b1565b6005826005811115610e9a57610e9a6116f0565b1115610ede5760405162461bcd60e51b815260206004820152601360248201527224b73b30b634b2103b37ba329037b83a34b7b760691b60448201526064016103b1565b6002546040516370a0823160e01b8152336004820152829161010090046001600160a01b0316906370a0823190602401602060405180830381865afa158015610f29573d5f5f3e3d5ffd5b505050506040513d601f19601f82011682018060405250810190610f4d9190611903565b1015610f9b5760405162461bcd60e51b815260206004820152601b60248201527f496e73756666696369656e74207469636b65742062616c616e6365000000000060448201526064016103b1565b600254604051636eb1769f60e11b8152336004820152306024820152829161010090046001600160a01b03169063dd62ed3e90604401602060405180830381865afa158015610fec573d5f5f3e3d5ffd5b505050506040513d601f19601f820116820180604052508101906110109190611903565b10156110575760405162461bcd60e51b8152602060048201526016602482015275496e73756666696369656e7420616c6c6f77616e636560501b60448201526064016103b1565b6003545f908152600460205260409020600281015460ff166110bb5760405162461bcd60e51b815260206004820152601760248201527f4e6f2061637469766520766f74696e6720706572696f6400000000000000000060448201526064016103b1565b805442101561110c5760405162461bcd60e51b815260206004820152601960248201527f566f74696e6720706572696f64206e6f7420737461727465640000000000000060448201526064016103b1565b80600101544211156111565760405162461bcd60e51b8152602060048201526013602482015272159bdd1a5b99c81c195c9a5bd908195b991959606a1b60448201526064016103b1565b6002810154610100900460ff16156111b05760405162461bcd60e51b815260206004820152601e60248201527f566f74696e6720706572696f6420616c7265616479207265736f6c766564000060448201526064016103b1565b6002546111cd9061010090046001600160a01b03163330856115ce565b5f6040518060a001604052808560058111156111eb576111eb6116f0565b815260208082018690526003546040808401919091524260608401525f6080909301839052338352600580835290832080546001818101835591855292909320845192820201805494955085949093849260ff19909216918490811115611254576112546116f0565b02179055506020828101516001830155604080840151600284015560608401516003808501919091556080909401516004909301805460ff19169315159390931790925591545f9081526006909252812080548592906112b59084906118f0565b90915550506003545f90815260066020526040812084916001909101908660058111156112e4576112e46116f0565b60058111156112f5576112f56116f0565b81526020019081526020015f205f82825461131091906118f0565b909155505060035460405133917f2c9deb38f462962eadbd85a9d3a4120503ee091f1582eaaa10aa8c6797651d299161134d91908890889061191a565b60405180910390a2505061136060018055565b5050565b61136c611412565b6001600160a01b03811661139557604051631e4fbdf760e01b81525f60048201526024016103b1565b6109f181611490565b6002546040516370a0823160e01b81523060048201525f9161010090046001600160a01b0316906370a0823190602401602060405180830381865afa1580156113e9573d5f5f3e3d5ffd5b505050506040513d601f19601f8201168201806040525081019061140d9190611903565b905090565b5f546001600160a01b031633146105565760405163118cdaa760e01b81523360048201526024016103b1565b61144661160d565b6002805460ff191690557f5db9ee0a495bf2e6ff9c91a7834c1ba4fdd244a5e8aa4e537bd38aeae4b073aa335b6040516001600160a01b03909116815260200160405180910390a1565b5f80546001600160a01b038381166001600160a01b0319831681178455604051919092169283917f8be0079c531659141344cd1fd0a4f28419497f9722a3daafe3b4186f6b6457e09190a35050565b6114e76115aa565b6002805460ff191660011790557f62e78cea01bee320cd4e420270b5ea74000d11b0c9f74754ebdbfc544b05a2586114733390565b60026001540361153f57604051633ee5aeb560e01b815260040160405180910390fd5b6002600155565b6040516001600160a01b038381166024830152604482018390526115a591859182169063a9059cbb906064015b604051602081830303815290604052915060e01b6020820180516001600160e01b038381831617835250505050611630565b505050565b60025460ff16156105565760405163d93c066560e01b815260040160405180910390fd5b6040516001600160a01b0384811660248301528381166044830152606482018390526116079186918216906323b872dd90608401611573565b50505050565b60025460ff1661055657604051638dfc202b60e01b815260040160405180910390fd5b5f5f60205f8451602086015f885af18061164f576040513d5f823e3d81fd5b50505f513d91508115611666578060011415611673565b6001600160a01b0384163b155b1561160757604051635274afe760e01b81526001600160a01b03851660048201526024016103b1565b8035600681106116aa575f5ffd5b919050565b5f5f604083850312156116c0575f5ffd5b823591506116d06020840161169c565b90509250929050565b5f602082840312156116e9575f5ffd5b5035919050565b634e487b7160e01b5f52602160045260245ffd5b6006811061172057634e487b7160e01b5f52602160045260245ffd5b9052565b858152602081018590528315156040820152821515606082015260a0810161174f6080830184611704565b9695505050505050565b80356001600160a01b03811681146116aa575f5ffd5b5f6020828403121561177f575f5ffd5b61178882611759565b9392505050565b5f5f604083850312156117a0575f5ffd5b6117a983611759565b946020939093013593505050565b60a081016117c58288611704565b85602083015284604083015283606083015282151560808301529695505050505050565b5f60a0820190506117fb828451611704565b60208301516020830152604083015160408301526060830151606083015260808301511515608083015292915050565b5f60a0820190508251825260208301516020830152604083015115156040830152606083015115156060830152608083015161186a6080840182611704565b5092915050565b5f5f60408385031215611882575f5ffd5b6117a98361169c565b602081016106f58284611704565b634e487b7160e01b5f52603260045260245ffd5b634e487b7160e01b5f52601160045260245ffd5b80820281158282048414176106f5576106f56118ad565b5f600182016118e9576118e96118ad565b5060010190565b808201808211156106f5576106f56118ad565b5f60208284031215611913575f5ffd5b5051919050565b8381526060810161192e6020830185611704565b82604083015294935050505056fea2646970667358221220ba6e79b33cf75c24a8906075dcbc5143378aaf04427456c7da5f218833ebdcda64736f6c634300081c0033",
  "linkReferences": {},
  "deployedLinkReferences": {},
  "immutableReferences": {},
  "inputSourceName": "project/contracts/VotingContract.sol",
  "buildInfoId": "solc-0_8_28-f06a50ddae7cf4b9aa36c92fd13d95ea2439899b"
}