{
  "_format": "hh3-artifact-1",
  "contractName": "StakingContract",
  "sourceName": "contracts/StakingContract.sol",
  "abi": [
    {
      "inputs": [
        {
          "internalType": "address",
          "name": "_vDOTToken",
          "type": "address"
        },
        {
          "internalType": "address",
          "name": "_votingTicketToken",
          "type": "address"
        }
      ],
      "stateMutability": "nonpayable",
      "type": "constructor"
    },
    {
      "inputs": [],
      "name": "EnforcedPause",
      "type": "error"
    },
    {
      "inputs": [],
      "name": "ExpectedPause",
      "type": "error"
    },
    {
      "inputs": [
        {
          "internalType": "address",
          "name": "owner",
          "type": "address"
        }
      ],
      "name": "OwnableInvalidOwner",
      "type": "error"
    },
    {
      "inputs": [
        {
          "internalType": "address",
          "name": "account",
          "type": "address"
        }
      ],
      "name": "OwnableUnauthorizedAccount",
      "type": "error"
    },
    {
      "inputs": [],
      "name": "ReentrancyGuardReentrantCall",
      "type": "error"
    },
    {
      "inputs": [
        {
          "internalType": "address",
          "name": "token",
          "type": "address"
        }
      ],
      "name": "SafeERC20FailedOperation",
      "type": "error"
    },
    {
      "anonymous": false,
      "inputs": [
        {
          "indexed": true,
          "internalType": "address",
          "name": "token",
          "type": "address"
        },
        {
          "indexed": false,
          "internalType": "uint256",
          "name": "amount",
          "type": "uint256"
        }
      ],
      "name": "EmergencyWithdraw",
      "type": "event"
    },
    {
      "anonymous": false,
      "inputs": [
        {
          "indexed": true,
          "internalType": "uint256",
          "name": "optionId",
          "type": "uint256"
        },
        {
          "indexed": false,
          "internalType": "uint256",
          "name": "duration",
          "type": "uint256"
        },
        {
          "indexed": false,
          "internalType": "uint256",
          "name": "multiplier",
          "type": "uint256"
        }
      ],
      "name": "LockOptionAdded",
      "type": "event"
    },
    {
      "anonymous": false,
      "inputs": [
        {
          "indexed": true,
          "internalType": "uint256",
          "name": "optionId",
          "type": "uint256"
        },
        {
          "indexed": false,
          "internalType": "uint256",
          "name": "duration",
          "type": "uint256"
        },
        {
          "indexed": false,
          "internalType": "uint256",
          "name": "multiplier",
          "type": "uint256"
        }
      ],
      "name": "LockOptionUpdated",
      "type": "event"
    },
    {
      "anonymous": false,
      "inputs": [
        {
          "indexed": true,
          "internalType": "address",
          "name": "previousOwner",
          "type": "address"
        },
        {
          "indexed": true,
          "internalType": "address",
          "name": "newOwner",
          "type": "address"
        }
      ],
      "name": "OwnershipTransferred",
      "type": "event"
    },
    {
      "anonymous": false,
      "inputs": [
        {
          "indexed": false,
          "internalType": "address",
          "name": "account",
          "type": "address"
        }
      ],
      "name": "Paused",
      "type": "event"
    },
    {
      "anonymous": false,
      "inputs": [
        {
          "indexed": true,
          "internalType": "address",
          "name": "user",
          "type": "address"
        },
        {
          "indexed": false,
          "internalType": "uint256",
          "name": "amount",
          "type": "uint256"
        },
        {
          "indexed": false,
          "internalType": "uint256",
          "name": "lockDuration",
          "type": "uint256"
        },
        {
          "indexed": false,
          "internalType": "uint256",
          "name": "ticketsMinted",
          "type": "uint256"
        }
      ],
      "name": "Staked",
      "type": "event"
    },
    {
      "anonymous": false,
      "inputs": [
        {
          "indexed": false,
          "internalType": "address",
          "name": "account",
          "type": "address"
        }
      ],
      "name": "Unpaused",
      "type": "event"
    },
    {
      "anonymous": false,
      "inputs": [
        {
          "indexed": true,
          "internalType": "address",
          "name": "user",
          "type": "address"
        },
        {
          "indexed": false,
          "internalType": "uint256",
          "name": "stakeIndex",
          "type": "uint256"
        },
        {
          "indexed": false,
          "internalType": "uint256",
          "name": "amount",
          "type": "uint256"
        }
      ],
      "name": "Unstaked",
      "type": "event"
    },
    {
      "inputs": [
        {
          "internalType": "uint256",
          "name": "amount",
          "type": "uint256"
        },
        {
          "internalType": "uint256",
          "name": "lockDuration",
          "type": "uint256"
        }
      ],
      "name": "calculateTickets",
      "outputs": [
        {
          "internalType": "uint256",
          "name": "",
          "type": "uint256"
        }
      ],
      "stateMutability": "view",
      "type": "function"
    },
    {
      "inputs": [
        {
          "internalType": "address",
          "name": "user",
          "type": "address"
        },
        {
          "internalType": "uint256",
          "name": "stakeIndex",
          "type": "uint256"
        }
      ],
      "name": "canUnstake",
      "outputs": [
        {
          "internalType": "bool",
          "name": "",
          "type": "bool"
        }
      ],
      "stateMutability": "view",
      "type": "function"
    },
    {
      "inputs": [
        {
          "internalType": "address",
          "name": "token",
          "type": "address"
        },
        {
          "internalType": "uint256",
          "name": "amount",
          "type": "uint256"
        }
      ],
      "name": "emergencyWithdraw",
      "outputs": [],
      "stateMutability": "nonpayable",
      "type": "function"
    },
    {
      "inputs": [],
      "name": "getContractTicketBalance",
      "outputs": [
        {
          "internalType": "uint256",
          "name": "",
          "type": "uint256"
        }
      ],
      "stateMutability": "view",
      "type": "function"
    },
    {
      "inputs": [],
      "name": "getContractVDOTBalance",
      "outputs": [
        {
          "internalType": "uint256",
          "name": "",
          "type": "uint256"
        }
      ],
      "stateMutability": "view",
      "type": "function"
    },
    {
      "inputs": [
        {
          "internalType": "address",
          "name": "user",
          "type": "address"
        },
        {
          "internalType": "uint256",
          "name": "index",
          "type": "uint256"
        }
      ],
      "name": "getUserStake",
      "outputs": [
        {
          "components": [
            {
              "internalType": "uint256",
              "name": "amount",
              "type": "uint256"
            },
            {
              "internalType": "uint256",
              "name": "lockDuration",
              "type": "uint256"
            },
            {
              "internalType": "uint256",
              "name": "startTime",
              "type": "uint256"
            },
            {
              "internalType": "uint256",
              "name": "endTime",
              "type": "uint256"
            },
            {
              "internalType": "uint256",
              "name": "ticketsMinted",
              "type": "uint256"
            },
            {
              "internalType": "bool",
              "name": "active",
              "type": "bool"
            }
          ],
          "internalType": "struct StakingContract.StakeInfo",
          "name": "",
          "type": "tuple"
        }
      ],
      "stateMutability": "view",
      "type": "function"
    },
    {
      "inputs": [
        {
          "internalType": "address",
          "name": "user",
          "type": "address"
        }
      ],
      "name": "getUserStakeCount",
      "outputs": [
        {
          "internalType": "uint256",
          "name": "",
          "type": "uint256"
        }
      ],
      "stateMutability": "view",
      "type": "function"
    },
    {
      "inputs": [
        {
          "internalType": "uint256",
          "name": "",
          "type": "uint256"
        }
      ],
      "name": "lockOptions",
      "outputs": [
        {
          "internalType": "uint256",
          "name": "duration",
          "type": "uint256"
        },
        {
          "internalType": "uint256",
          "name": "multiplier",
          "type": "uint256"
        },
        {
          "internalType": "bool",
          "name": "active",
          "type": "bool"
        }
      ],
      "stateMutability": "view",
      "type": "function"
    },
    {
      "inputs": [],
      "name": "owner",
      "outputs": [
        {
          "internalType": "address",
          "name": "",
          "type": "address"
        }
      ],
      "stateMutability": "view",
      "type": "function"
    },
    {
      "inputs": [],
      "name": "pause",
      "outputs": [],
      "stateMutability": "nonpayable",
      "type": "function"
    },
    {
      "inputs": [],
      "name": "paused",
      "outputs": [
        {
          "internalType": "bool",
          "name": "",
          "type": "bool"
        }
      ],
      "stateMutability": "view",
      "type": "function"
    },
    {
      "inputs": [],
      "name": "renounceOwnership",
      "outputs": [],
      "stateMutability": "nonpayable",
      "type": "function"
    },
    {
      "inputs": [
        {
          "internalType": "uint256",
          "name": "amount",
          "type": "uint256"
        },
        {
          "internalType": "uint256",
          "name": "lockDuration",
          "type": "uint256"
        }
      ],
      "name": "stake",
      "outputs": [],
      "stateMutability": "nonpayable",
      "type": "function"
    },
    {
      "inputs": [],
      "name": "totalStaked",
      "outputs": [
        {
          "internalType": "uint256",
          "name": "",
          "type": "uint256"
        }
      ],
      "stateMutability": "view",
      "type": "function"
    },
    {
      "inputs": [
        {
          "internalType": "address",
          "name": "newOwner",
          "type": "address"
        }
      ],
      "name": "transferOwnership",
      "outputs": [],
      "stateMutability": "nonpayable",
      "type": "function"
    },
    {
      "inputs": [],
      "name": "unpause",
      "outputs": [],
      "stateMutability": "nonpayable",
      "type": "function"
    },
    {
      "inputs": [
        {
          "internalType": "uint256",
          "name": "stakeIndex",
          "type": "uint256"
        }
      ],
      "name": "unstake",
      "outputs": [],
      "stateMutability": "nonpayable",
      "type": "function"
    },
    {
      "inputs": [
        {
          "internalType": "uint256",
          "name": "duration",
          "type": "uint256"
        },
        {
          "internalType": "uint256",
          "name": "multiplier",
          "type": "uint256"
        }
      ],
      "name": "updateLockOption",
      "outputs": [],
      "stateMutability": "nonpayable",
      "type": "function"
    },
    {
      "inputs": [
        {
          "internalType": "address",
          "name": "",
          "type": "address"
        },
        {
          "internalType": "uint256",
          "name": "",
          "type": "uint256"
        }
      ],
      "name": "userStakes",
      "outputs": [
        {
          "internalType": "uint256",
          "name": "amount",
          "type": "uint256"
        },
        {
          "internalType": "uint256",
          "name": "lockDuration",
          "type": "uint256"
        },
        {
          "internalType": "uint256",
          "name": "startTime",
          "type": "uint256"
        },
        {
          "internalType": "uint256",
          "name": "endTime",
          "type": "uint256"
        },
        {
          "internalType": "uint256",
          "name": "ticketsMinted",
          "type": "uint256"
        },
        {
          "internalType": "bool",
          "name": "active",
          "type": "bool"
        }
      ],
      "stateMutability": "view",
      "type": "function"
    },
    {
      "inputs": [],
      "name": "vDOTToken",
      "outputs": [
        {
          "internalType": "contract IERC20",
          "name": "",
          "type": "address"
        }
      ],
      "stateMutability": "view",
      "type": "function"
    },
    {
      "inputs": [],
      "name": "votingTicketToken",
      "outputs": [
        {
          "internalType": "contract IVotingTicket",
          "name": "",
          "type": "address"
        }
      ],
      "stateMutability": "view",
      "type": "function"
    }
  ],
  "bytecode": "0x608060405234801561000f575f5ffd5b506040516116ba3803806116ba83398101604081905261002e916102e6565b338061005357604051631e4fbdf760e01b81525f600482015260240160405180910390fd5b61005c8161027c565b50600180805560028054610100600160a81b0319166101006001600160a01b0395861602179055600380546001600160a01b0319169290931691909117909155604080516060808201835262093a808252612710602080840191825283850186815260075f908152600480845295517fbeb3bad75134cb432e5707980e3245c52c5998a1125ee30f2f0dbf3925b1e5515592517fbeb3bad75134cb432e5707980e3245c52c5998a1125ee30f2f0dbf3925b1e55255517fbeb3bad75134cb432e5707980e3245c52c5998a1125ee30f2f0dbf3925b1e553805460ff199081169215159290921790558551808501875262278d008152612af8818401908152818801898152601e865287855291517f9041ee6632bd2142b9cc58f348e0761559f8d964fe48ac6d87dc2b689213e3bb55517f9041ee6632bd2142b9cc58f348e0761559f8d964fe48ac6d87dc2b689213e3bc55517f9041ee6632bd2142b9cc58f348e0761559f8d964fe48ac6d87dc2b689213e3bd80548316911515919091179055855193840186526276a70084526132c8848301908152958401968752605a90925292909252517fdf768ab10bd9bf6991efbce6ca12a3eab909711d259e530cf7c7661f662cdb235590517fdf768ab10bd9bf6991efbce6ca12a3eab909711d259e530cf7c7661f662cdb245590517fdf768ab10bd9bf6991efbce6ca12a3eab909711d259e530cf7c7661f662cdb258054909216901515179055610317565b5f80546001600160a01b038381166001600160a01b0319831681178455604051919092169283917f8be0079c531659141344cd1fd0a4f28419497f9722a3daafe3b4186f6b6457e09190a35050565b80516001600160a01b03811681146102e1575f5ffd5b919050565b5f5f604083850312156102f7575f5ffd5b610300836102cb565b915061030e602084016102cb565b90509250929050565b611396806103245f395ff3fe608060405234801561000f575f5ffd5b5060043610610132575f3560e01c8063817b1cd2116100b4578063b5d5b5fa11610079578063b5d5b5fa1461029b578063bde12c9c146102dd578063cec695fa146102f0578063d0743d4314610350578063f2fde38b14610368578063f980c92b1461037b575f5ffd5b8063817b1cd2146102195780638456cb59146102225780638da5cb5b1461022a57806395ccea671461023a578063a7d9131f1461024d575f5ffd5b80635e598d12116100fa5780635e598d12146101b85780636f3e9ff7146101cb578063715018a6146101f65780637b0472f0146101fe5780637c860a5f14610211575f5ffd5b80630fe6b711146101365780631b545a171461015c5780632e17de78146101845780633f4ba83a146101995780635c975abb146101a1575b5f5ffd5b61014961014436600461122b565b610383565b6040519081526020015b60405180910390f35b61014961016a366004611266565b6001600160a01b03165f9081526005602052604090205490565b610197610192366004611286565b61044b565b005b610197610659565b60025460ff165b6040519015158152602001610153565b6101a86101c636600461129d565b61066b565b6003546101de906001600160a01b031681565b6040516001600160a01b039091168152602001610153565b61019761072e565b61019761020c36600461122b565b61073f565b610149610b52565b61014960065481565b610197610bc7565b5f546001600160a01b03166101de565b61019761024836600461129d565b610bd7565b61027e61025b366004611286565b60046020525f908152604090208054600182015460029092015490919060ff1683565b604080519384526020840192909252151590820152606001610153565b6102ae6102a936600461129d565b610c4b565b6040805196875260208701959095529385019290925260608401526080830152151560a082015260c001610153565b6101976102eb36600461122b565b610c9e565b6103036102fe36600461129d565b610e22565b60405161015391905f60c082019050825182526020830151602083015260408301516040830152606083015160608301526080830151608083015260a0830151151560a083015292915050565b6002546101de9061010090046001600160a01b031681565b610197610376366004611266565b610f37565b610149610f71565b5f8181526004602090815260408083208151606081018352815481526001820154938101939093526002015460ff1615159082018190526104075760405162461bcd60e51b81526020600482015260196024820152784c6f636b206f7074696f6e206e6f7420617661696c61626c6560381b60448201526064015b60405180910390fd5b5f8490505f61271080846020015161041f91906112d9565b61042990846112ec565b6104339190611303565b905061043f8183611322565b93505050505b92915050565b610453610fa1565b335f9081526005602052604090205481106104a65760405162461bcd60e51b8152602060048201526013602482015272092dcecc2d8d2c840e6e8c2d6ca40d2dcc8caf606b1b60448201526064016103fe565b335f9081526005602052604081208054839081106104c6576104c6611335565b5f9182526020909120600690910201600581015490915060ff1661051f5760405162461bcd60e51b815260206004820152601060248201526f5374616b65206e6f742061637469766560801b60448201526064016103fe565b80600301544210156105685760405162461bcd60e51b815260206004820152601260248201527114dd185ad9481cdd1a5b1b081b1bd8dad95960721b60448201526064016103fe565b80546002546105869061010090046001600160a01b03163383610fcb565b600354600483810154604051632770a7eb60e21b8152339281019290925260248201526001600160a01b0390911690639dc29fac906044015f604051808303815f87803b1580156105d5575f5ffd5b505af11580156105e7573d5f5f3e3d5ffd5b50505060058301805460ff1916905550600680548291905f9061060b9084906112d9565b9091555050604080518481526020810183905233917f7fc4727e062e336010f2c282598ef5f14facb3de68cf8195c2f23e1454b2b74e910160405180910390a2505061065660018055565b50565b61066161102f565b61066961105b565b565b6001600160a01b0382165f90815260056020526040812054821061069057505f610445565b6001600160a01b0383165f9081526005602052604081208054849081106106b9576106b9611335565b5f9182526020918290206040805160c081018252600690930290910180548352600181015493830193909352600283015490820152600382015460608201526004820154608082015260059091015460ff1615801560a08301819052919250610726575080606001514210155b949350505050565b61073661102f565b6106695f6110ad565b610747610fa1565b61074f6110fc565b5f821161079e5760405162461bcd60e51b815260206004820152601d60248201527f416d6f756e74206d7573742062652067726561746572207468616e203000000060448201526064016103fe565b5f8181526004602052604090206002015460ff166107fa5760405162461bcd60e51b81526020600482015260196024820152784c6f636b206f7074696f6e206e6f7420617661696c61626c6560381b60448201526064016103fe565b6002546040516370a0823160e01b8152336004820152839161010090046001600160a01b0316906370a0823190602401602060405180830381865afa158015610845573d5f5f3e3d5ffd5b505050506040513d601f19601f820116820180604052508101906108699190611349565b10156108b75760405162461bcd60e51b815260206004820152601960248201527f496e73756666696369656e742076444f542062616c616e63650000000000000060448201526064016103fe565b600254604051636eb1769f60e11b8152336004820152306024820152839161010090046001600160a01b03169063dd62ed3e90604401602060405180830381865afa158015610908573d5f5f3e3d5ffd5b505050506040513d601f19601f8201168201806040525081019061092c9190611349565b10156109735760405162461bcd60e51b8152602060048201526016602482015275496e73756666696369656e7420616c6c6f77616e636560501b60448201526064016103fe565b5f8181526004602090815260408083208151606081018352815481526001820154938101939093526002015460ff16151590820152906109b38484610383565b6002549091506109d39061010090046001600160a01b0316333087611120565b6003546040516340c10f1960e01b8152336004820152602481018390526001600160a01b03909116906340c10f19906044015f604051808303815f87803b158015610a1c575f5ffd5b505af1158015610a2e573d5f5f3e3d5ffd5b505050505f6040518060c001604052808681526020018581526020014281526020018562015180610a5f91906112ec565b610a699042611322565b8152602080820185905260016040928301819052335f908152600580845284822080548085018255908352848320875160069283029091019081559487015193850193909355938501516002840155606085015160038401556080850151600484015560a085015192909301805460ff19169215159290921790915580549293508792909190610afa908490611322565b9091555050604080518681526020810186905290810183905233907fb4caaf29adda3eefee3ad552a8e85058589bf834c7466cae4ee58787f70589ed9060600160405180910390a2505050610b4e60018055565b5050565b6002546040516370a0823160e01b81523060048201525f9161010090046001600160a01b0316906370a08231906024015b602060405180830381865afa158015610b9e573d5f5f3e3d5ffd5b505050506040513d601f19601f82011682018060405250810190610bc29190611349565b905090565b610bcf61102f565b61066961115f565b610bdf61102f565b610c04610bf35f546001600160a01b031690565b6001600160a01b0384169083610fcb565b816001600160a01b03167f5fafa99d0643513820be26656b45130b01e1c03062e1266bf36f88cbd3bd969582604051610c3f91815260200190565b60405180910390a25050565b6005602052815f5260405f208181548110610c64575f80fd5b5f91825260209091206006909102018054600182015460028301546003840154600485015460059095015493965091945092909160ff1686565b610ca661102f565b612710811015610cf85760405162461bcd60e51b815260206004820152601960248201527f4d756c7469706c696572206d757374206265203e3d20312e300000000000000060448201526064016103fe565b5f8211610d475760405162461bcd60e51b815260206004820152601f60248201527f4475726174696f6e206d7573742062652067726561746572207468616e20300060448201526064016103fe565b60405180606001604052808362015180610d6191906112ec565b81526020808201849052600160409283018190525f868152600483528381208551808255938601519281019290925593909201516002909201805460ff1916921515929092179091559003610df357817f2a7d636d9d2351ed68dd8c5eccf08e842b6f81cc70ba2c5d65ec4b6ab47ff77f610ddf82620151806112ec565b604080519182526020820185905201610c3f565b817f697c1a26bd5646cbc6057b8711940fd6973efc6ecb74110c64b400a8b3c385bb610ddf82620151806112ec565b610e576040518060c001604052805f81526020015f81526020015f81526020015f81526020015f81526020015f151581525090565b6001600160a01b0383165f908152600560205260409020548210610ead5760405162461bcd60e51b815260206004820152600d60248201526c092dcecc2d8d2c840d2dcc8caf609b1b60448201526064016103fe565b6001600160a01b0383165f908152600560205260409020805483908110610ed657610ed6611335565b5f9182526020918290206040805160c081018252600690930290910180548352600181015493830193909352600283015490820152600382015460608201526004820154608082015260059091015460ff16151560a0820152905092915050565b610f3f61102f565b6001600160a01b038116610f6857604051631e4fbdf760e01b81525f60048201526024016103fe565b610656816110ad565b6003546040516370a0823160e01b81523060048201525f916001600160a01b0316906370a0823190602401610b83565b600260015403610fc457604051633ee5aeb560e01b815260040160405180910390fd5b6002600155565b6040516001600160a01b0383811660248301526044820183905261102a91859182169063a9059cbb906064015b604051602081830303815290604052915060e01b6020820180516001600160e01b03838183161783525050505061119c565b505050565b5f546001600160a01b031633146106695760405163118cdaa760e01b81523360048201526024016103fe565b611063611208565b6002805460ff191690557f5db9ee0a495bf2e6ff9c91a7834c1ba4fdd244a5e8aa4e537bd38aeae4b073aa335b6040516001600160a01b03909116815260200160405180910390a1565b5f80546001600160a01b038381166001600160a01b0319831681178455604051919092169283917f8be0079c531659141344cd1fd0a4f28419497f9722a3daafe3b4186f6b6457e09190a35050565b60025460ff16156106695760405163d93c066560e01b815260040160405180910390fd5b6040516001600160a01b0384811660248301528381166044830152606482018390526111599186918216906323b872dd90608401610ff8565b50505050565b6111676110fc565b6002805460ff191660011790557f62e78cea01bee320cd4e420270b5ea74000d11b0c9f74754ebdbfc544b05a2586110903390565b5f5f60205f8451602086015f885af1806111bb576040513d5f823e3d81fd5b50505f513d915081156111d25780600114156111df565b6001600160a01b0384163b155b1561115957604051635274afe760e01b81526001600160a01b03851660048201526024016103fe565b60025460ff1661066957604051638dfc202b60e01b815260040160405180910390fd5b5f5f6040838503121561123c575f5ffd5b50508035926020909101359150565b80356001600160a01b0381168114611261575f5ffd5b919050565b5f60208284031215611276575f5ffd5b61127f8261124b565b9392505050565b5f60208284031215611296575f5ffd5b5035919050565b5f5f604083850312156112ae575f5ffd5b6112b78361124b565b946020939093013593505050565b634e487b7160e01b5f52601160045260245ffd5b81810381811115610445576104456112c5565b8082028115828204841417610445576104456112c5565b5f8261131d57634e487b7160e01b5f52601260045260245ffd5b500490565b80820180821115610445576104456112c5565b634e487b7160e01b5f52603260045260245ffd5b5f60208284031215611359575f5ffd5b505191905056fea26469706673582212209e3d089a3f0f6d93adda346a9f0067f6eb93a71ff057d2c8a278625bf7344b4f64736f6c634300081c0033",
  "linkReferences": {},
  "deployedLinkReferences": {},
  "immutableReferences": {},
  "inputSourceName": "project/contracts/StakingContract.sol",
  "buildInfoId": "solc-0_8_28-af2c99be9b61eab312a0b865737832ddc16da386"
}